{
  "_format": "hh-sol-artifact-1",
  "contractName": "NFTMarketplace",
  "sourceName": "contracts/NFTMarketplace.sol",
  "abi": [
    {
      "inputs": [],
      "stateMutability": "nonpayable",
      "type": "constructor"
    },
    {
      "anonymous": false,
      "inputs": [
        {
          "indexed": true,
          "internalType": "address",
          "name": "owner",
          "type": "address"
        },
        {
          "indexed": true,
          "internalType": "address",
          "name": "approved",
          "type": "address"
        },
        {
          "indexed": true,
          "internalType": "uint256",
          "name": "tokenId",
          "type": "uint256"
        }
      ],
      "name": "Approval",
      "type": "event"
    },
    {
      "anonymous": false,
      "inputs": [
        {
          "indexed": true,
          "internalType": "address",
          "name": "owner",
          "type": "address"
        },
        {
          "indexed": true,
          "internalType": "address",
          "name": "operator",
          "type": "address"
        },
        {
          "indexed": false,
          "internalType": "bool",
          "name": "approved",
          "type": "bool"
        }
      ],
      "name": "ApprovalForAll",
      "type": "event"
    },
    {
      "anonymous": false,
      "inputs": [
        {
          "indexed": true,
          "internalType": "address",
          "name": "previousOwner",
          "type": "address"
        },
        {
          "indexed": true,
          "internalType": "address",
          "name": "newOwner",
          "type": "address"
        }
      ],
      "name": "OwnershipTransferred",
      "type": "event"
    },
    {
      "anonymous": false,
      "inputs": [
        {
          "indexed": true,
          "internalType": "uint256",
          "name": "tokenId",
          "type": "uint256"
        },
        {
          "indexed": false,
          "internalType": "address",
          "name": "owner",
          "type": "address"
        },
        {
          "indexed": false,
          "internalType": "address",
          "name": "seller",
          "type": "address"
        },
        {
          "indexed": false,
          "internalType": "uint256",
          "name": "price",
          "type": "uint256"
        },
        {
          "indexed": false,
          "internalType": "bool",
          "name": "currentlyListed",
          "type": "bool"
        }
      ],
      "name": "TokenListedSuccess",
      "type": "event"
    },
    {
      "anonymous": false,
      "inputs": [
        {
          "indexed": true,
          "internalType": "address",
          "name": "from",
          "type": "address"
        },
        {
          "indexed": true,
          "internalType": "address",
          "name": "to",
          "type": "address"
        },
        {
          "indexed": true,
          "internalType": "uint256",
          "name": "tokenId",
          "type": "uint256"
        }
      ],
      "name": "Transfer",
      "type": "event"
    },
    {
      "anonymous": false,
      "inputs": [
        {
          "indexed": false,
          "internalType": "address",
          "name": "owner",
          "type": "address"
        },
        {
          "indexed": false,
          "internalType": "uint256",
          "name": "amountWithdrawn",
          "type": "uint256"
        }
      ],
      "name": "WithdrawSaleFunds",
      "type": "event"
    },
    {
      "inputs": [
        {
          "internalType": "address",
          "name": "to",
          "type": "address"
        },
        {
          "internalType": "uint256",
          "name": "tokenId",
          "type": "uint256"
        }
      ],
      "name": "approve",
      "outputs": [],
      "stateMutability": "nonpayable",
      "type": "function"
    },
    {
      "inputs": [
        {
          "internalType": "address",
          "name": "owner",
          "type": "address"
        }
      ],
      "name": "balanceOf",
      "outputs": [
        {
          "internalType": "uint256",
          "name": "",
          "type": "uint256"
        }
      ],
      "stateMutability": "view",
      "type": "function"
    },
    {
      "inputs": [
        {
          "internalType": "string",
          "name": "tokenURI",
          "type": "string"
        },
        {
          "internalType": "uint256",
          "name": "price",
          "type": "uint256"
        }
      ],
      "name": "createToken",
      "outputs": [
        {
          "internalType": "uint256",
          "name": "",
          "type": "uint256"
        }
      ],
      "stateMutability": "nonpayable",
      "type": "function"
    },
    {
      "inputs": [
        {
          "internalType": "uint256",
          "name": "tokenId",
          "type": "uint256"
        }
      ],
      "name": "executeSale",
      "outputs": [],
      "stateMutability": "payable",
      "type": "function"
    },
    {
      "inputs": [],
      "name": "getAllNFTs",
      "outputs": [
        {
          "components": [
            {
              "internalType": "uint256",
              "name": "tokenId",
              "type": "uint256"
            },
            {
              "internalType": "address payable",
              "name": "owner",
              "type": "address"
            },
            {
              "internalType": "address payable",
              "name": "seller",
              "type": "address"
            },
            {
              "internalType": "uint256",
              "name": "price",
              "type": "uint256"
            },
            {
              "internalType": "bool",
              "name": "currentlyListed",
              "type": "bool"
            }
          ],
          "internalType": "struct NFTMarketplace.ListedToken[]",
          "name": "",
          "type": "tuple[]"
        }
      ],
      "stateMutability": "view",
      "type": "function"
    },
    {
      "inputs": [
        {
          "internalType": "uint256",
          "name": "tokenId",
          "type": "uint256"
        }
      ],
      "name": "getApproved",
      "outputs": [
        {
          "internalType": "address",
          "name": "",
          "type": "address"
        }
      ],
      "stateMutability": "view",
      "type": "function"
    },
    {
      "inputs": [],
      "name": "getCurrentToken",
      "outputs": [
        {
          "internalType": "uint256",
          "name": "",
          "type": "uint256"
        }
      ],
      "stateMutability": "view",
      "type": "function"
    },
    {
      "inputs": [],
      "name": "getLatestIdToListedToken",
      "outputs": [
        {
          "components": [
            {
              "internalType": "uint256",
              "name": "tokenId",
              "type": "uint256"
            },
            {
              "internalType": "address payable",
              "name": "owner",
              "type": "address"
            },
            {
              "internalType": "address payable",
              "name": "seller",
              "type": "address"
            },
            {
              "internalType": "uint256",
              "name": "price",
              "type": "uint256"
            },
            {
              "internalType": "bool",
              "name": "currentlyListed",
              "type": "bool"
            }
          ],
          "internalType": "struct NFTMarketplace.ListedToken",
          "name": "",
          "type": "tuple"
        }
      ],
      "stateMutability": "view",
      "type": "function"
    },
    {
      "inputs": [
        {
          "internalType": "uint256",
          "name": "tokenId",
          "type": "uint256"
        }
      ],
      "name": "getListedTokenForId",
      "outputs": [
        {
          "components": [
            {
              "internalType": "uint256",
              "name": "tokenId",
              "type": "uint256"
            },
            {
              "internalType": "address payable",
              "name": "owner",
              "type": "address"
            },
            {
              "internalType": "address payable",
              "name": "seller",
              "type": "address"
            },
            {
              "internalType": "uint256",
              "name": "price",
              "type": "uint256"
            },
            {
              "internalType": "bool",
              "name": "currentlyListed",
              "type": "bool"
            }
          ],
          "internalType": "struct NFTMarketplace.ListedToken",
          "name": "",
          "type": "tuple"
        }
      ],
      "stateMutability": "view",
      "type": "function"
    },
    {
      "inputs": [],
      "name": "getMarketplacePrice",
      "outputs": [
        {
          "internalType": "uint256",
          "name": "",
          "type": "uint256"
        }
      ],
      "stateMutability": "view",
      "type": "function"
    },
    {
      "inputs": [],
      "name": "getMyNFTs",
      "outputs": [
        {
          "components": [
            {
              "internalType": "uint256",
              "name": "tokenId",
              "type": "uint256"
            },
            {
              "internalType": "address payable",
              "name": "owner",
              "type": "address"
            },
            {
              "internalType": "address payable",
              "name": "seller",
              "type": "address"
            },
            {
              "internalType": "uint256",
              "name": "price",
              "type": "uint256"
            },
            {
              "internalType": "bool",
              "name": "currentlyListed",
              "type": "bool"
            }
          ],
          "internalType": "struct NFTMarketplace.ListedToken[]",
          "name": "",
          "type": "tuple[]"
        }
      ],
      "stateMutability": "view",
      "type": "function"
    },
    {
      "inputs": [
        {
          "internalType": "address",
          "name": "owner",
          "type": "address"
        },
        {
          "internalType": "address",
          "name": "operator",
          "type": "address"
        }
      ],
      "name": "isApprovedForAll",
      "outputs": [
        {
          "internalType": "bool",
          "name": "",
          "type": "bool"
        }
      ],
      "stateMutability": "view",
      "type": "function"
    },
    {
      "inputs": [],
      "name": "name",
      "outputs": [
        {
          "internalType": "string",
          "name": "",
          "type": "string"
        }
      ],
      "stateMutability": "view",
      "type": "function"
    },
    {
      "inputs": [],
      "name": "owner",
      "outputs": [
        {
          "internalType": "address",
          "name": "",
          "type": "address"
        }
      ],
      "stateMutability": "view",
      "type": "function"
    },
    {
      "inputs": [
        {
          "internalType": "uint256",
          "name": "tokenId",
          "type": "uint256"
        }
      ],
      "name": "ownerOf",
      "outputs": [
        {
          "internalType": "address",
          "name": "",
          "type": "address"
        }
      ],
      "stateMutability": "view",
      "type": "function"
    },
    {
      "inputs": [],
      "name": "renounceOwnership",
      "outputs": [],
      "stateMutability": "nonpayable",
      "type": "function"
    },
    {
      "inputs": [
        {
          "internalType": "address",
          "name": "from",
          "type": "address"
        },
        {
          "internalType": "address",
          "name": "to",
          "type": "address"
        },
        {
          "internalType": "uint256",
          "name": "tokenId",
          "type": "uint256"
        }
      ],
      "name": "safeTransferFrom",
      "outputs": [],
      "stateMutability": "nonpayable",
      "type": "function"
    },
    {
      "inputs": [
        {
          "internalType": "address",
          "name": "from",
          "type": "address"
        },
        {
          "internalType": "address",
          "name": "to",
          "type": "address"
        },
        {
          "internalType": "uint256",
          "name": "tokenId",
          "type": "uint256"
        },
        {
          "internalType": "bytes",
          "name": "data",
          "type": "bytes"
        }
      ],
      "name": "safeTransferFrom",
      "outputs": [],
      "stateMutability": "nonpayable",
      "type": "function"
    },
    {
      "inputs": [
        {
          "internalType": "address",
          "name": "operator",
          "type": "address"
        },
        {
          "internalType": "bool",
          "name": "approved",
          "type": "bool"
        }
      ],
      "name": "setApprovalForAll",
      "outputs": [],
      "stateMutability": "nonpayable",
      "type": "function"
    },
    {
      "inputs": [
        {
          "internalType": "bytes4",
          "name": "interfaceId",
          "type": "bytes4"
        }
      ],
      "name": "supportsInterface",
      "outputs": [
        {
          "internalType": "bool",
          "name": "",
          "type": "bool"
        }
      ],
      "stateMutability": "view",
      "type": "function"
    },
    {
      "inputs": [],
      "name": "symbol",
      "outputs": [
        {
          "internalType": "string",
          "name": "",
          "type": "string"
        }
      ],
      "stateMutability": "view",
      "type": "function"
    },
    {
      "inputs": [
        {
          "internalType": "uint256",
          "name": "tokenId",
          "type": "uint256"
        }
      ],
      "name": "tokenURI",
      "outputs": [
        {
          "internalType": "string",
          "name": "",
          "type": "string"
        }
      ],
      "stateMutability": "view",
      "type": "function"
    },
    {
      "inputs": [
        {
          "internalType": "address",
          "name": "from",
          "type": "address"
        },
        {
          "internalType": "address",
          "name": "to",
          "type": "address"
        },
        {
          "internalType": "uint256",
          "name": "tokenId",
          "type": "uint256"
        }
      ],
      "name": "transferFrom",
      "outputs": [],
      "stateMutability": "nonpayable",
      "type": "function"
    },
    {
      "inputs": [
        {
          "internalType": "address",
          "name": "newOwner",
          "type": "address"
        }
      ],
      "name": "transferOwnership",
      "outputs": [],
      "stateMutability": "nonpayable",
      "type": "function"
    },
    {
      "inputs": [
        {
          "internalType": "uint256",
          "name": "_newMarketplaceFee",
          "type": "uint256"
        }
      ],
      "name": "updateMarketplaceFee",
      "outputs": [],
      "stateMutability": "payable",
      "type": "function"
    },
    {
      "inputs": [],
      "name": "withdrawSaleFunds",
      "outputs": [],
      "stateMutability": "nonpayable",
      "type": "function"
    }
  ],
  "bytecode": "0x6080604052662386f26fc10000600a553480156200001c57600080fd5b50604080518082018252600e81526d4e46544d61726b6574706c61636560901b6020808301918252835180850190945260048452634e46544d60e01b9084015281519192916200006f91600091620000fe565b50805162000085906001906020840190620000fe565b505050620000a26200009c620000a860201b60201c565b620000ac565b620001e1565b3390565b600780546001600160a01b038381166001600160a01b0319831681179093556040519116919082907f8be0079c531659141344cd1fd0a4f28419497f9722a3daafe3b4186f6b6457e090600090a35050565b8280546200010c90620001a4565b90600052602060002090601f0160209004810192826200013057600085556200017b565b82601f106200014b57805160ff19168380011785556200017b565b828001600101855582156200017b579182015b828111156200017b5782518255916020019190600101906200015e565b50620001899291506200018d565b5090565b5b808211156200018957600081556001016200018e565b600181811c90821680620001b957607f821691505b60208210811415620001db57634e487b7160e01b600052602260045260246000fd5b50919050565b61232780620001f16000396000f3fe6080604052600436106101815760003560e01c80638da5cb5b116100d1578063bbd50dab1161008a578063e0391b0911610064578063e0391b091461043d578063e985e9c514610452578063ef2d17461461049b578063f2fde38b146104b057600080fd5b8063bbd50dab146103f3578063c87b56dd14610408578063d1a88ae51461042857600080fd5b80638da5cb5b146103405780638e2645901461035e57806395d89b411461038b5780639b1225c4146103a0578063a22cb465146103b3578063b88d4fde146103d357600080fd5b806330eb80cd1161013e5780636352211e116101185780636352211e146102cb57806370a08231146102eb578063715018a61461030b57806372b3b6201461032057600080fd5b806330eb80cd1461027657806342842e0e14610289578063629cb2e4146102a957600080fd5b806301ffc9a71461018657806306fdde03146101bb578063081812fc146101dd578063095ea7b3146102155780631215919e1461023757806323b872dd14610256575b600080fd5b34801561019257600080fd5b506101a66101a1366004611f2d565b6104d0565b60405190151581526020015b60405180910390f35b3480156101c757600080fd5b506101d0610522565b6040516101b291906120f9565b3480156101e957600080fd5b506101fd6101f8366004611fbb565b6105b4565b6040516001600160a01b0390911681526020016101b2565b34801561022157600080fd5b50610235610230366004611f04565b6105db565b005b34801561024357600080fd5b50600a545b6040519081526020016101b2565b34801561026257600080fd5b50610235610271366004611e16565b6106f6565b610235610284366004611fbb565b610727565b34801561029557600080fd5b506102356102a4366004611e16565b610734565b3480156102b557600080fd5b506102be61074f565b6040516101b291906120ab565b3480156102d757600080fd5b506101fd6102e6366004611fbb565b610992565b3480156102f757600080fd5b50610248610306366004611dca565b6109f2565b34801561031757600080fd5b50610235610a78565b34801561032c57600080fd5b5061024861033b366004611f65565b610a8c565b34801561034c57600080fd5b506007546001600160a01b03166101fd565b34801561036a57600080fd5b5061037e610379366004611fbb565b610b1f565b6040516101b291906121f0565b34801561039757600080fd5b506101d0610b89565b6102356103ae366004611fbb565b610b98565b3480156103bf57600080fd5b506102356103ce366004611eca565b610cc9565b3480156103df57600080fd5b506102356103ee366004611e51565b610cd8565b3480156103ff57600080fd5b50610235610d10565b34801561041457600080fd5b506101d0610423366004611fbb565b610dbb565b34801561043457600080fd5b5061037e610ecc565b34801561044957600080fd5b506102be610f43565b34801561045e57600080fd5b506101a661046d366004611de4565b6001600160a01b03918216600090815260056020908152604080832093909416825291909152205460ff1690565b3480156104a757600080fd5b50610248611089565b3480156104bc57600080fd5b506102356104cb366004611dca565b611099565b60006001600160e01b031982166380ac58cd60e01b148061050157506001600160e01b03198216635b5e139f60e01b145b8061051c57506301ffc9a760e01b6001600160e01b03198316145b92915050565b60606000805461053190612259565b80601f016020809104026020016040519081016040528092919081815260200182805461055d90612259565b80156105aa5780601f1061057f576101008083540402835291602001916105aa565b820191906000526020600020905b81548152906001019060200180831161058d57829003601f168201915b5050505050905090565b60006105bf82611112565b506000908152600460205260409020546001600160a01b031690565b60006105e682610992565b9050806001600160a01b0316836001600160a01b031614156106595760405162461bcd60e51b815260206004820152602160248201527f4552433732313a20617070726f76616c20746f2063757272656e74206f776e656044820152603960f91b60648201526084015b60405180910390fd5b336001600160a01b03821614806106755750610675813361046d565b6106e75760405162461bcd60e51b815260206004820152603d60248201527f4552433732313a20617070726f76652063616c6c6572206973206e6f7420746f60448201527f6b656e206f776e6572206f7220617070726f76656420666f7220616c6c0000006064820152608401610650565b6106f18383611171565b505050565b61070033826111df565b61071c5760405162461bcd60e51b81526004016106509061210c565b6106f183838361125d565b61072f6113ce565b600a55565b6106f183838360405180602001604052806000815250610cd8565b6060600061075c60085490565b905060008080805b848110156107f45733600b600061077c8460016121fe565b81526020810191909152604001600020600101546001600160a01b031614806107cf575033600b60006107b08460016121fe565b81526020810191909152604001600020600201546001600160a01b0316145b156107e2576107df6001856121fe565b93505b806107ec81612294565b915050610764565b5060008367ffffffffffffffff81111561081e57634e487b7160e01b600052604160045260246000fd5b60405190808252806020026020018201604052801561085757816020015b610844611c71565b81526020019060019003908161083c5790505b50905060005b858110156109885733600b60006108758460016121fe565b81526020810191909152604001600020600101546001600160a01b031614806108c8575033600b60006108a98460016121fe565b81526020810191909152604001600020600201546001600160a01b0316145b15610976576108d88160016121fe565b6000818152600b6020908152604091829020825160a0810184528154815260018201546001600160a01b039081169382019390935260028201549092169282019290925260038201546060820152600482015460ff16151560808201528451929550909184908790811061095c57634e487b7160e01b600052603260045260246000fd5b60209081029190910101526109726001866121fe565b9450505b8061098081612294565b91505061085d565b5095945050505050565b6000818152600260205260408120546001600160a01b03168061051c5760405162461bcd60e51b8152602060048201526018602482015277115490cdcc8c4e881a5b9d985b1a59081d1bdad95b88125160421b6044820152606401610650565b60006001600160a01b038216610a5c5760405162461bcd60e51b815260206004820152602960248201527f4552433732313a2061646472657373207a65726f206973206e6f7420612076616044820152683634b21037bbb732b960b91b6064820152608401610650565b506001600160a01b031660009081526003602052604090205490565b610a806113ce565b610a8a6000611428565b565b6000600a548211610adf5760405162461bcd60e51b815260206004820181905260248201527f7072696365206d757374206265206120706f73697469766520696e74656765726044820152606401610650565b610aed600880546001019055565b6000610af860085490565b9050610b04338261147a565b610b0e8185611494565b610b18818461152e565b9392505050565b610b27611c71565b506000908152600b6020908152604091829020825160a0810184528154815260018201546001600160a01b03908116938201939093526002820154909216928201929092526003820154606082015260049091015460ff161515608082015290565b60606001805461053190612259565b6000818152600b6020526040902060038101546002909101546001600160a01b031634808314610c32576040805162461bcd60e51b81526020600482015260248101919091527f506c65617365207375626d6974207468652061736b696e67207072696365206960448201527f6e206f7264657220746f20636f6d706c657465207468652070757263686173656064820152608401610650565b6000848152600b6020526040902060048101805460ff1916905560020180546001600160a01b03191633179055610c6d600980546001019055565b610c7830338661125d565b6000600a5482610c889190612216565b6040519091506001600160a01b0384169082156108fc029083906000818181858888f19350505050158015610cc1573d6000803e3d6000fd5b505050505050565b610cd4338383611618565b5050565b610ce233836111df565b610cfe5760405162461bcd60e51b81526004016106509061210c565b610d0a848484846116e7565b50505050565b610d186113ce565b47610d2b6007546001600160a01b031690565b6001600160a01b03166108fc829081150290604051600060405180830381858888f19350505050158015610d63573d6000803e3d6000fd5b507f3fec9cbe8c76c2fa9d3757845d57ed0ad0d4d2942b967184d32dc0beb65c3ff0610d976007546001600160a01b031690565b604080516001600160a01b039092168252602082018490520160405180910390a150565b6060610dc682611112565b60008281526006602052604081208054610ddf90612259565b80601f0160208091040260200160405190810160405280929190818152602001828054610e0b90612259565b8015610e585780601f10610e2d57610100808354040283529160200191610e58565b820191906000526020600020905b815481529060010190602001808311610e3b57829003601f168201915b505050505090506000610e7660408051602081019091526000815290565b9050805160001415610e89575092915050565b815115610ebb578082604051602001610ea392919061203f565b60405160208183030381529060405292505050919050565b610ec48461171a565b949350505050565b610ed4611c71565b6000610edf60085490565b6000908152600b6020908152604091829020825160a0810184528154815260018201546001600160a01b03908116938201939093526002820154909216928201929092526003820154606082015260049091015460ff161515608082015292915050565b60606000610f5060085490565b905060008167ffffffffffffffff811115610f7b57634e487b7160e01b600052604160045260246000fd5b604051908082528060200260200182016040528015610fb457816020015b610fa1611c71565b815260200190600190039081610f995790505b509050600080805b8481101561107f57610fcf8160016121fe565b6000818152600b6020908152604091829020825160a0810184528154815260018201546001600160a01b039081169382019390935260028201549092169282019290925260038201546060820152600482015460ff16151560808201528651929450909186908690811061105357634e487b7160e01b600052603260045260246000fd5b60209081029190910101526110698460016121fe565b935050808061107790612294565b915050610fbc565b5091949350505050565b600061109460085490565b905090565b6110a16113ce565b6001600160a01b0381166111065760405162461bcd60e51b815260206004820152602660248201527f4f776e61626c653a206e6577206f776e657220697320746865207a65726f206160448201526564647265737360d01b6064820152608401610650565b61110f81611428565b50565b6000818152600260205260409020546001600160a01b031661110f5760405162461bcd60e51b8152602060048201526018602482015277115490cdcc8c4e881a5b9d985b1a59081d1bdad95b88125160421b6044820152606401610650565b600081815260046020526040902080546001600160a01b0319166001600160a01b03841690811790915581906111a682610992565b6001600160a01b03167f8c5be1e5ebec7d5bd14f71427d1e84f3dd0314c0f7b2291e5b200ac8c7c3b92560405160405180910390a45050565b6000806111eb83610992565b9050806001600160a01b0316846001600160a01b0316148061123257506001600160a01b0380821660009081526005602090815260408083209388168352929052205460ff165b80610ec45750836001600160a01b031661124b846105b4565b6001600160a01b031614949350505050565b826001600160a01b031661127082610992565b6001600160a01b0316146112965760405162461bcd60e51b8152600401610650906121ab565b6001600160a01b0382166112f85760405162461bcd60e51b8152602060048201526024808201527f4552433732313a207472616e7366657220746f20746865207a65726f206164646044820152637265737360e01b6064820152608401610650565b611305838383600161178d565b826001600160a01b031661131882610992565b6001600160a01b03161461133e5760405162461bcd60e51b8152600401610650906121ab565b600081815260046020908152604080832080546001600160a01b03199081169091556001600160a01b0387811680865260038552838620805460001901905590871680865283862080546001019055868652600290945282852080549092168417909155905184937fddf252ad1be2c89b69c2b068fc378daa952ba7f163c4a11628f55a4df523b3ef91a4505050565b6007546001600160a01b03163314610a8a5760405162461bcd60e51b815260206004820181905260248201527f4f776e61626c653a2063616c6c6572206973206e6f7420746865206f776e65726044820152606401610650565b600780546001600160a01b038381166001600160a01b0319831681179093556040519116919082907f8be0079c531659141344cd1fd0a4f28419497f9722a3daafe3b4186f6b6457e090600090a35050565b610cd4828260405180602001604052806000815250611815565b6000828152600260205260409020546001600160a01b031661150f5760405162461bcd60e51b815260206004820152602e60248201527f45524337323155524953746f726167653a2055524920736574206f66206e6f6e60448201526d32bc34b9ba32b73a103a37b5b2b760911b6064820152608401610650565b600082815260066020908152604090912082516106f192840190611c9f565b6040805160a081018252838152306020808301828152338486018181526060860188815260016080880181815260008c8152600b9097529890952096518755925193860180546001600160a01b039586166001600160a01b03199182161790915590516002870180549190951691161790925551600384015592516004909201805492151560ff19909316929092179091556115cb91908461125d565b604080513081523360208201529081018290526001606082015282907f9339409317fd01fabff48b703019016f49159bacc801ae872d2ca637d226e4c09060800160405180910390a25050565b816001600160a01b0316836001600160a01b0316141561167a5760405162461bcd60e51b815260206004820152601960248201527f4552433732313a20617070726f766520746f2063616c6c6572000000000000006044820152606401610650565b6001600160a01b03838116600081815260056020908152604080832094871680845294825291829020805460ff191686151590811790915591519182527f17307eab39ab6107e8899845ad3d59bd9653f200f220920489ca2b5937696c31910160405180910390a3505050565b6116f284848461125d565b6116fe84848484611848565b610d0a5760405162461bcd60e51b815260040161065090612159565b606061172582611112565b600061173c60408051602081019091526000815290565b9050600081511161175c5760405180602001604052806000815250610b18565b8061176684611955565b60405160200161177792919061203f565b6040516020818303038152906040529392505050565b6001811115610d0a576001600160a01b038416156117d3576001600160a01b038416600090815260036020526040812080548392906117cd908490612216565b90915550505b6001600160a01b03831615610d0a576001600160a01b0383166000908152600360205260408120805483929061180a9084906121fe565b909155505050505050565b61181f8383611a00565b61182c6000848484611848565b6106f15760405162461bcd60e51b815260040161065090612159565b60006001600160a01b0384163b1561194a57604051630a85bd0160e11b81526001600160a01b0385169063150b7a029061188c90339089908890889060040161206e565b602060405180830381600087803b1580156118a657600080fd5b505af19250505080156118d6575060408051601f3d908101601f191682019092526118d391810190611f49565b60015b611930573d808015611904576040519150601f19603f3d011682016040523d82523d6000602084013e611909565b606091505b5080516119285760405162461bcd60e51b815260040161065090612159565b805181602001fd5b6001600160e01b031916630a85bd0160e11b149050610ec4565b506001949350505050565b6060600061196283611b99565b600101905060008167ffffffffffffffff81111561199057634e487b7160e01b600052604160045260246000fd5b6040519080825280601f01601f1916602001820160405280156119ba576020820181803683370190505b5090508181016020015b600019016f181899199a1a9b1b9c1cb0b131b232b360811b600a86061a8153600a85049450846119f3576119f8565b6119c4565b509392505050565b6001600160a01b038216611a565760405162461bcd60e51b815260206004820181905260248201527f4552433732313a206d696e7420746f20746865207a65726f20616464726573736044820152606401610650565b6000818152600260205260409020546001600160a01b031615611abb5760405162461bcd60e51b815260206004820152601c60248201527f4552433732313a20746f6b656e20616c7265616479206d696e746564000000006044820152606401610650565b611ac960008383600161178d565b6000818152600260205260409020546001600160a01b031615611b2e5760405162461bcd60e51b815260206004820152601c60248201527f4552433732313a20746f6b656e20616c7265616479206d696e746564000000006044820152606401610650565b6001600160a01b038216600081815260036020908152604080832080546001019055848352600290915280822080546001600160a01b0319168417905551839291907fddf252ad1be2c89b69c2b068fc378daa952ba7f163c4a11628f55a4df523b3ef908290a45050565b60008072184f03e93ff9f4daa797ed6e38ed64bf6a1f0160401b8310611bd85772184f03e93ff9f4daa797ed6e38ed64bf6a1f0160401b830492506040015b6d04ee2d6d415b85acef81000000008310611c04576d04ee2d6d415b85acef8100000000830492506020015b662386f26fc100008310611c2257662386f26fc10000830492506010015b6305f5e1008310611c3a576305f5e100830492506008015b6127108310611c4e57612710830492506004015b60648310611c60576064830492506002015b600a831061051c5760010192915050565b6040805160a08101825260008082526020820181905291810182905260608101829052608081019190915290565b828054611cab90612259565b90600052602060002090601f016020900481019282611ccd5760008555611d13565b82601f10611ce657805160ff1916838001178555611d13565b82800160010185558215611d13579182015b82811115611d13578251825591602001919060010190611cf8565b50611d1f929150611d23565b5090565b5b80821115611d1f5760008155600101611d24565b600067ffffffffffffffff80841115611d5357611d536122c5565b604051601f8501601f19908116603f01168101908282118183101715611d7b57611d7b6122c5565b81604052809350858152868686011115611d9457600080fd5b858560208301376000602087830101525050509392505050565b80356001600160a01b0381168114611dc557600080fd5b919050565b600060208284031215611ddb578081fd5b610b1882611dae565b60008060408385031215611df6578081fd5b611dff83611dae565b9150611e0d60208401611dae565b90509250929050565b600080600060608486031215611e2a578081fd5b611e3384611dae565b9250611e4160208501611dae565b9150604084013590509250925092565b60008060008060808587031215611e66578081fd5b611e6f85611dae565b9350611e7d60208601611dae565b925060408501359150606085013567ffffffffffffffff811115611e9f578182fd5b8501601f81018713611eaf578182fd5b611ebe87823560208401611d38565b91505092959194509250565b60008060408385031215611edc578182fd5b611ee583611dae565b915060208301358015158114611ef9578182fd5b809150509250929050565b60008060408385031215611f16578182fd5b611f1f83611dae565b946020939093013593505050565b600060208284031215611f3e578081fd5b8135610b18816122db565b600060208284031215611f5a578081fd5b8151610b18816122db565b60008060408385031215611f77578182fd5b823567ffffffffffffffff811115611f8d578283fd5b8301601f81018513611f9d578283fd5b611fac85823560208401611d38565b95602094909401359450505050565b600060208284031215611fcc578081fd5b5035919050565b60008151808452611feb81602086016020860161222d565b601f01601f19169290920160200192915050565b805182526020808201516001600160a01b039081169184019190915260408083015190911690830152606080820151908301526080908101511515910152565b6000835161205181846020880161222d565b83519083019061206581836020880161222d565b01949350505050565b6001600160a01b03858116825284166020820152604081018390526080606082018190526000906120a190830184611fd3565b9695505050505050565b6020808252825182820181905260009190848201906040850190845b818110156120ed576120da838551611fff565b9284019260a092909201916001016120c7565b50909695505050505050565b602081526000610b186020830184611fd3565b6020808252602d908201527f4552433732313a2063616c6c6572206973206e6f7420746f6b656e206f776e6560408201526c1c881bdc88185c1c1c9bdd9959609a1b606082015260800190565b60208082526032908201527f4552433732313a207472616e7366657220746f206e6f6e20455243373231526560408201527131b2b4bb32b91034b6b83632b6b2b73a32b960711b606082015260800190565b60208082526025908201527f4552433732313a207472616e736665722066726f6d20696e636f72726563742060408201526437bbb732b960d91b606082015260800190565b60a0810161051c8284611fff565b60008219821115612211576122116122af565b500190565b600082821015612228576122286122af565b500390565b60005b83811015612248578181015183820152602001612230565b83811115610d0a5750506000910152565b600181811c9082168061226d57607f821691505b6020821081141561228e57634e487b7160e01b600052602260045260246000fd5b50919050565b60006000198214156122a8576122a86122af565b5060010190565b634e487b7160e01b600052601160045260246000fd5b634e487b7160e01b600052604160045260246000fd5b6001600160e01b03198116811461110f57600080fdfea26469706673582212200ff32e779fd09bb6b1a03b65ca6e4800198af38dcd7a2994ae96bd65c3ce53b064736f6c63430008040033",
  "linkReferences": {},
  "deployedLinkReferences": {}
}